:100000000C942A000C9434000C9434000C943400AA
:100010000C9434000C9434000C9434000C94340090
:100020000C9434000C9434000C9434000C94340080
:100030000C9434000C9434000C9434000C94340070
:100040000C9434000C9434000C9434000C94340060
:100050000C94340011241FBECFE5D8E0DEBFCDBF25
:100060000E94A8030C943A040C940000DF92EF92D3
:10007000FF920F931F93CF93DF93FF248EE1D82E2F
:10008000C0E2DEE480E06F2D40E00E94DE02EF2C53
:10009000E3940E2D14E080E0612F0E94AE028823CD
:1000A00009F4D02E80E0612F0E94AE028823D1F3A4
:1000B000CE010197F1F71F5F0C5F183061F780E008
:1000C0006F2D41E00E94DE0284E0E81611F0FE2C64
:1000D000D9CF8D2DDF91CF911F910F91FF90EF9090
:1000E000DF90089580E06FE00E94860380E06FEF6C
:1000F0000E94CD02089581E060E040E00E94DE02AF
:1001000081E061E041E00E94DE0282E00E9497030C
:100110008F7708951F93182F81E060E040E00E94E0
:10012000DE0281E061E040E00E94DE0282E0612FB9
:100130000E94CD0281E062E041E00E94DE028AE19D
:100140008A95F1F781E062E040E00E94DE0280EAF9
:100150009FE00197F1F71F9108950F931F93082FC8
:1001600010E004C088E10E948A001F5F1017D0F3DE
:100170001F910F9108950F931F93082F10E004C053
:100180008CE10E948A001F5F1017D0F31F910F911E
:10019000089580E10E948A00089584E10E948A0007
:1001A0000895882329F4862F80580E948A00089594
:1001B000813021F4862F80540E948A0008950F9385
:1001C0001F9382E06FEF0E94860381E060E041E0D0
:1001D0000E943B0281E061E041E00E943B0281E03D
:1001E00062E041E00E943B0280E991E028EC30E0CF
:1001F000F9013197F1F70197D9F788E30E948A0056
:1002000000ED17E0C8010197F1F78FE00E948A0026
:10021000C8010197F1F781E00E948A0080E197E22E
:100220000197F1F786E00E948A001F910F910895CF
:100230001F93182F81E060E041E00E94DE0281E020
:1002400061E040E00E94DE0282E0612F0E94CD0268
:1002500081E062E041E00E94DE028AE18A95F1F7E6
:1002600081E062E040E00E94DE0280EA9FE00197C8
:10027000F1F71F9108951F93CF93DF93EC0110E0E6
:1002800003C00E9418011F5FFE01E10FF11D808174
:100290008823B9F7DF91CF911F91089580E40E94E0
:1002A0008A0080E00E94180180E00E9418018AE024
:1002B0000E9418018FE10E9418018EE00E9418012F
:1002C00084E00E94180180E00E94180180E00E94F2
:1002D000180180E00E9418018AE00E9418018AE05B
:1002E0000E94180180E00E9418018FE10E9418010D
:1002F0008EE00E94180180E00E94180180E00E94B8
:10030000180180E00E94180180E00E9418018CE032
:100310000E9418018FE10E94180187E10E941801D4
:100320008EE00E94180184E00E94180180E00E9483
:10033000180180E00E9418018FE00E9418018DE1F1
:100340000E9418018DE10E9418018DE10E941801A0
:1003500084E10E94180184E10E9418018CE10E944E
:10036000180180E00E94180188E00E9418018BE0CB
:100370000E94180188E00E94180180E00E94180184
:1003800081E10E9418018EE00E94180180E00E9425
:10039000180180E060E00E94D10008956F927F9282
:1003A0008F929F92AF92BF92CF92DF92EF92FF9285
:1003B0000F931F933B014C01611571058105910558
:1003C00019F480E30E94180181E0A82EB12CC12C01
:1003D000D12C20C0C601B5012AE030E040E050E059
:1003E0000E94F9037B018C01C401B3010E9418042F
:1003F0005B016C01AE0CBF1CC01ED11EC401B30159
:100400002AE030E040E050E00E941804C901DA011F
:100410003C014D016114710481049104D9F618C0A6
:10042000C601B5012AE030E040E050E00E94180427
:10043000862F805D0E941801C601B5012AE030E0D8
:1004400040E050E00E941804C901DA015C016D012E
:1004500082E0A816B104C104D10410F71F910F91D6
:10046000FF90EF90DF90CF90BF90AF909F908F90D4
:100470007F906F9008954130B1F5813099F08130CF
:1004800030F08230D1F0833009F067C021C02AB348
:1004900081E090E002C0880F991F6A95E2F7282B4F
:1004A0002ABB089527B381E090E002C0880F991F0E
:1004B0006A95E2F7282B27BB089524B381E090E0EA
:1004C00002C0880F991F6A95E2F7282B24BB089574
:1004D00021B381E090E002C0880F991F6A95E2F78E
:1004E000282B21BB08954423C1F5813099F0813038
:1004F00028F08230D9F0833081F524C02AB381E01E
:1005000090E002C0880F991F6A95E2F780958223D8
:100510008ABB089527B381E090E002C0880F991F3D
:100520006A95E2F78095822387BB089524B381E022
:1005300090E002C0880F991F6A95E2F780958223A8
:1005400084BB089521B381E090E002C0880F991F19
:100550006A95E2F78095822381BB0895813049F046
:10056000813028F0823039F08330B1F40DC089B386
:1005700003C086B301C083B390E002C09595879510
:100580006A95E2F78170089580B390E002C0959576
:1005900087956A95E2F781700895813049F081303E
:1005A00028F0823039F0833041F406C06BBB0895E7
:1005B00068BB089565BB089562BB08954130B1F5ED
:1005C000813099F0813030F08230D1F0833009F001
:1005D00067C021C02BB381E090E002C0880F991F53
:1005E0006A95E2F7282B2BBB089528B381E090E0B1
:1005F00002C0880F991F6A95E2F7282B28BB08953F
:1006000025B381E090E002C0880F991F6A95E2F758
:10061000282B25BB089522B381E090E002C0880F0B
:10062000991F6A95E2F7282B22BB08954423C1F550
:10063000813099F0813028F08230D9F0833081F513
:1006400024C02BB381E090E002C0880F991F6A9507
:10065000E2F7809582238BBB089528B381E090E078
:1006600002C0880F991F6A95E2F78095822388BBA4
:10067000089525B381E090E002C0880F991F6A9524
:10068000E2F78095822385BB089522B381E090E054
:1006900002C0880F991F6A95E2F78095822382BB7A
:1006A0000895813091F0813028F08230C9F0833094
:1006B00061F521C02BB381E090E002C0880F991F43
:1006C0006A95E2F728272BBB089528B381E090E0D4
:1006D00002C0880F991F6A95E2F7282728BB089562
:1006E00025B381E090E002C0880F991F6A95E2F778
:1006F000282725BB089522B381E090E002C0880F2F
:10070000991F6A95E2F7282722BB0895813049F0A6
:10071000813028F0823039F0833041F406C06ABB62
:10072000089567BB089564BB089561BB0895813047
:1007300049F0813028F0823039F0833041F406C02E
:1007400089B3089586B3089583B3089580B3089557
:10075000FF920F931F93DF93CF930F92CDB7DEB726
:100760000E94DF000E94720000E019820E943600A1
:10077000182F8E31D9F38981813041F488E20E94AB
:10078000BB0081E060E00E94D10000E01A3010F070
:100790000E5F01C00F5F612F70E080E090E00E946B
:1007A000CE01073210F0E1E0E983FF240F30E9F4D5
:1007B000FF24F3941AC0F981F13019F4002309F4ED
:1007C000FF240E943600182F893010F481E005C004
:1007D0008E3159F0893049F082E00E94AD00612FDE
:1007E00070E080E090E00E94CE01FF2009F4BECFCF
:1007F000E2CF629FD001739FF001829FE00DF11D57
:10080000649FE00DF11D929FF00D839FF00D749F8A
:10081000F00D659FF00D9927729FB00DE11DF91F36
:10082000639FB00DE11DF91FBD01CF011124089593
:10083000A1E21A2EAA1BBB1BFD010DC0AA1FBB1FE4
:10084000EE1FFF1FA217B307E407F50720F0A21B56
:10085000B30BE40BF50B661F771F881F991F1A94C3
:1008600069F760957095809590959B01AC01BD01ED
:08087000CF010895F894FFCFB9
:00000001FF
